:100000000C9432000C944F000C9438030C944F0065
:100010000C944F000C944F000C944F000C944F0024
:100020000C944F000C944F000C944F000C94AA03B6
:100030000C944F000C9492010C944F000C944F00C0
:100040000C944F000C944F000C944F000C944F00F4
:100050000C944F0008041804280438044804580479
:100060006804780411241FBECFE5D8E0DEBFCDBF01
:1000700010E0A0E6B0E0E8EDF1E102C005900D92DD
:10008000A23CB107D9F721E0A2ECB0E001C01D927B
:10009000AD30B207E1F70E9470000C94EA080C94AE
:1000A0000000CF9380E006C0E82FF0E0EB51FF4F57
:1000B00010828F5F8131C0F3C0E00E9440078F3211
:1000C00031F4EC2FF0E0EB51FF4F108207C0EC2F22
:1000D000F0E0EB51FF4F8083CF5FEFCFCF910895DA
:1000E0001092C2000E9434070E94FA010E94A701E8
:1000F0000E94F20260E080E00E94C50280E690E08B
:100100000E9471020E94510060E081E00E94C502DD
:1001100085EE90E00E9471022FEF80E792E021507F
:1001200080409040E1F700C000008AB180688AB941
:100130008FB780688FBF0E9410032FEF83ED90E38D
:10014000215080409040E1F700C000000E9427034A
:100150008FE59AEE0197F1F700C000008091F90059
:100160009091FA008230910550F49FEF20E782E0F1
:10017000915020408040E1F700C0000040C004974B
:100180000297D0F40E94E1020E94EA020E94AC01B0
:1001900060E081E00E94C5028AE690E00E94710260
:1001A0009FEF21EE84E0915020408040E1F700C0B5
:1001B00000000E94EF0223C060E081E00E94C502BF
:1001C0008BE790E00E9471020E94F5029093C400B8
:1001D0008093C3006DE081E00E94C5026091C3007E
:1001E0007091C40080E090E00E9484029FEF21EEB5
:1001F00084E0915020408040E1F700C000008091F1
:10020000C200813009F0A2CF0E9451000E94DD029D
:1002100060E080E00E94C50285EE90E00E947102DD
:100220009FEF20E782E0915020408040E1F700C03E
:1002300000000E94510020E00BC0822F90E0FC01E2
:10024000EB51FF4F3081FC01EB52FF4F30832F5FAA
:10025000203198F30E94510020E00BC0822F90E0E3
:10026000FC01EB51FF4F3081FC01EB53FF4F30831A
:100270002F5F203198F30E94DD0260E080E00E9451
:10028000C50289E890E00E9471029FEF23ED80E3B0
:10029000915020408040E1F700C000000E94DD0244
:1002A00060E080E00E94C50286E990E00E94710251
:1002B00060E081E00E94C50285ED90E00E9471023D
:1002C0009FEF27EA81E6915020408040E1F700C08F
:1002D00000000E94DD0260E080E00E94C50280EA2A
:1002E00090E00E94710260E081E00E94C50285EC0E
:1002F00090E00E9471029FEF27EA81E69150204032
:100300008040E1F700C000001092C2008AB180680E
:100310008AB960E080E00E94C5028BEA90E00E940A
:10032000710214CF1F920F920FB60F9211248F9368
:100330008CB1853231F481E08093C2008AB18F772D
:100340008AB98F910F900FBE0F901F90189561E0A2
:100350008BE20E948F04089561E08BE20E947E058B
:100360002FEF86E791E0215080409040E1F700C0F8
:10037000000060E08BE20E947E050895CF93C82FB5
:1003800060E08BE00E947E0560E08DE00E947E05CB
:100390006C2F607F636083E00E946D0661E08DE0FA
:1003A0000E947E058FE99FE00197F1F700C00000F1
:1003B00060E08DE00E947E0590E1C99FB0011124AC
:1003C000636083E00E946D0661E08DE00E947E051F
:1003D0008FE99FE00197F1F700C0000060E08DE039
:1003E0000E947E058FE19EE40197F1F700C00000B6
:1003F000CF91089561E08BE00E948F0461E08CE072
:100400000E948F0461E08DE00E948F0461E08CE225
:100410000E948F0461E08DE20E948F0461E08EE211
:100420000E948F0461E08FE20E948F042FEF81EE23
:1004300094E0215080409040E1F700C0000083E349
:100440000E94BE0182E30E94BE0188E20E94BE01BA
:100450008CE00E94BE0181E00E94BE0186E00E9405
:10046000BE0182E00E94BE010895CF93C82F61E0D3
:100470008BE00E947E0560E08DE00E947E056C2F7F
:10048000607F636083E00E946D0661E08DE00E9402
:100490007E058FE99FE00197F1F700C0000060E062
:1004A0008DE00E947E0590E1C99FB0011124636038
:1004B00083E00E946D0661E08DE00E947E058FE979
:1004C0009FE00197F1F700C0000060E08DE00E941E
:1004D0007E058FE19EE40197F1F700C00000CF9107
:1004E00008950F931F93CF938C01C0E003C00E9427
:1004F0003502CF5FF801EC0FF11D80818111F7CF3C
:10050000CF911F910F9108951F93CF93DF93CDB794
:10051000DEB760970FB6F894DEBF0FBECDBF10E018
:1005200015C02AE030E040E050E00E947308E1E0AE
:10053000F0E0EC0FFD1FE10FF11D17FDFA95605D76
:1005400060831F5F622F732F842F952F61157105B4
:100550008105910531F711500CC0E1E0F0E0EC0F9E
:10056000FD1FE10FF11D17FDFA9580810E943502F4
:100570001150112394F760960FB6F894DEBF0FBEAA
:10058000CDBFDF91CF911F910895CF93DF9300D01E
:10059000CDB7DEB790E8998390EC9A83E1E0F0E084
:1005A000EC0FFD1FE80FF11D8081860F0E94BE0138
:1005B0000F900F90DF91CF91089581E00E94BE01CE
:1005C00008950E941B070E9420078FE39CE997BDB6
:1005D00086BD08958FEC97E09BBD8ABD08950E946B
:1005E0002A0708950E94E503089581E00E94FE0312
:1005F0009C01A4EFB1E00E949B082FEF33E040E0A4
:1006000050E00E947308ADECBCEC0E949B089695EC
:1006100087959695879585509048880F991F0895DE
:1006200081B3806181BB81B3877F81BB82B38860E6
:1006300082BB0E947D060E9495060E94F30660E040
:1006400070E0CB010E949A060E94E906089580910D
:10065000F80081110CC082B3806182BB80E58A956D
:10066000F1F782B38F7E82BB81E08093F80008951A
:100670001F920F920FB60F9211242F933F934F9317
:100680005F936F937F938F939F93AF93BF93EF93FA
:10069000FF938091F800813009F04BC08091F70002
:1006A00081110DC060E070E0CB010E949A0681E0EC
:1006B0008093F7001092F6001092F5003AC060E0C7
:1006C00070E07091F50082B7680F711D80E090E0D6
:1006D0000E94E50729E23CE349E654E40E9444070E
:1006E0000E94B607DC01CB019093FA008093F900D9
:1006F0004AE06BEF70E00E94B508ABEFB0E00D9000
:100700000020E9F7119785E0EDEBF0E001900D9204
:100710008A95E1F72FEF83EF91E0215080409040E0
:10072000E1F700C000001092F6001092F500109260
:10073000F700FF91EF91BF91AF919F918F917F91C2
:100740006F915F914F913F912F910F900FBE0F903E
:100750001F9018951F920F920FB60F9211242F938E
:100760003F934F935F936F937F938F939F93AF9339
:10077000BF93EF93FF938091F5009091F60001965F
:100780009093F6008093F5008B3D924068F060E016
:1007900070E0CB010E949A061092F8001092F700C8
:1007A0001092F6001092F500FF91EF91BF91AF917A
:1007B0009F918F917F916F915F914F913F912F9179
:1007C0000F900FBE0F901F90189587B1806487B966
:1007D00087B18F7787B987B18F7D87B986B18062FE
:1007E00086B986B1816086B986B1826086B986B1E4
:1007F000846086B986B1806886B9089590E08830B3
:10080000910508F084C0FC01E65DFF4F0C9495084B
:1008100087B18E7F87B987B18D7F87B987B18B7F8D
:1008200087B987B1877F87B987B18F7E87B96FC056
:1008300087B1816087B987B18D7F87B987B18B7F99
:1008400087B987B1877F87B987B18F7E87B95FC046
:1008500087B18E7F87B987B1826087B987B18B7F77
:1008600087B987B1877F87B987B18F7E87B94FC036
:1008700087B1816087B987B1826087B987B18B7F83
:1008800087B987B1877F87B987B18F7E87B93FC026
:1008900087B18E7F87B987B18D7F87B987B1846033
:1008A00087B987B1877F87B987B18F7E87B92FC016
:1008B00087B1816087B987B18D7F87B987B184603F
:1008C00087B987B1877F87B987B18F7E87B91FC006
:1008D00087B18E7F87B987B1826087B987B184601D
:1008E00087B987B1877F87B987B18F7E87B90FC0F6
:1008F00087B1816087B987B1826087B987B1846029
:1009000087B987B1877F87B987B18F7E87B986B16D
:10091000806486B9349BFECF84B195B108959DEC77
:10092000899F912D1124969596959695662309F4A5
:1009300072C0613009F0E1C0923021F118F49130B9
:1009400039F008959330C1F1943009F44CC0089502
:100950009DEC899F912D1124969596959695990FCA
:10096000292F220F220F920F891B47B321E030E07D
:10097000B90102C0660F771F8A95E2F7CB01842B7D
:1009800087BB08959DEC899F912D112492959F70AE
:10099000990F990F292F220F220F920F891B41B314
:1009A00021E030E0B90102C0660F771F8A95E2F7B7
:1009B000CB01842B81BB089599E8899F912D112447
:1009C00092959F707EE1979F8019112444B321E096
:1009D00030E0B90102C0660F771F8A95E2F7CB01BC
:1009E000842B84BB08959DEC899F912D11249295B1
:1009F0009695977078E2979F801911244AB321E069
:100A000030E0B90102C0660F771F8A95E2F7CB018B
:100A1000842B8ABB0895923029F118F4913039F073
:100A200008959330D1F1943009F44FC008959DECAE
:100A3000899F912D1124969596959695990F292F1A
:100A4000220F220F920F891B47B321E030E0B9013A
:100A500002C0660F771F8A95E2F7CB018095842349
:100A600087BB08959DEC899F912D112492959F70CD
:100A7000990F990F292F220F220F920F891B41B333
:100A800021E030E0B90102C0660F771F8A95E2F7D6
:100A9000CB018095842381BB089599E8899F912D8E
:100AA000112492959F707EE1979F8019112444B381
:100AB00021E030E0B90102C0660F771F8A95E2F7A6
:100AC000CB018095842384BB08959DEC899F912D53
:100AD000112492959695977078E2979F801911242A
:100AE0004AB321E030E0B90102C0660F771F8A9552
:100AF000E2F7CB01809584238ABB08959DEC899F02
:100B0000912D1124969596959695662309F472C0B9
:100B1000613009F0E1C0923021F118F4913039F0E0
:100B200008959330C1F1943009F44CC008959DECC0
:100B3000899F912D1124969596959695990F292F19
:100B4000220F220F920F891B48B321E030E0B90138
:100B500002C0660F771F8A95E2F7CB01842B88BB12
:100B600008959DEC899F912D112492959F70990F66
:100B7000990F292F220F220F920F891B42B321E0D8
:100B800030E0B90102C0660F771F8A95E2F7CB010A
:100B9000842B82BB089599E8899F912D1124929509
:100BA0009F707EE1979F8019112445B321E030E0CA
:100BB000B90102C0660F771F8A95E2F7CB01842B3B
:100BC00085BB08959DEC899F912D11249295969552
:100BD000977078E2979F801911244BB321E030E0A1
:100BE000B90102C0660F771F8A95E2F7CB01842B0B
:100BF0008BBB0895923029F118F4913039F00895A3
:100C00009330D1F1943009F44FC008959DEC899F41
:100C1000912D1124969596959695990F292F220F2F
:100C2000220F920F891B48B321E030E0B90102C0C6
:100C3000660F771F8A95E2F7CB018095842388BBE6
:100C400008959DEC899F912D112492959F70990F85
:100C5000990F292F220F220F920F891B42B321E0F7
:100C600030E0B90102C0660F771F8A95E2F7CB0129
:100C70008095842382BB089599E8899F912D112442
:100C800092959F707EE1979F8019112445B321E0D2
:100C900030E0B90102C0660F771F8A95E2F7CB01F9
:100CA0008095842385BB08959DEC899F912D112407
:100CB00092959695977078E2979F801911244BB37F
:100CC00021E030E0B90102C0660F771F8A95E2F794
:100CD000CB01809584238BBB0895813041F028F0AF
:100CE000823039F0833039F0089568BB089562BBD3
:100CF000089565BB08956BBB08958FB780688FBF5B
:100D00008BB780688BBF85B7846085BF089583B734
:100D1000877F83BF83B78F7B83BF08958FB780683A
:100D20008FBF89B7816089BF08950E9487060E949E
:100D30008E0608950F931F939B01AC01A8EEB3E0BC
:100D40000E94AA088B019C01689415F83695279596
:100D5000179507951694D1F7DC01CB01072E7EE09D
:100D6000B695A795979587957A95D1F7702D80932D
:100D7000050190930601A0930701B0930801D901E2
:100D8000C80180959095A095B0959927AA27BB2773
:100D90008093090190930A01A0930B01B0930C0179
:100DA0000023A1F082BF8091050190910601A091DE
:100DB0000701B09108010196A11DB11D80930501A5
:100DC00090930601A0930701B09308011F910F9122
:100DD000089583B7816083BF83B78D7F83BF83B757
:100DE0008B7F83BF089583B78E7F83BF83B78D7F4B
:100DF00083BF83B78B7F83BF08958FB58E7F8FBDF1
:100E00008FB582608FBD8EB588608EBD8EB58061D6
:100E10008EBD089561E089E10E948F048FB58F7EB9
:100E20008FBD8FB58F7D8FBD8FB58F7B8FBD8FB5FC
:100E300080688FBD08950E94FD060E940A070895EC
:100E40008EB58E7F8EBD8EB582608EBD8EB58B7F4A
:100E50008EBD08958EB58E7F8EBD8EB58D7F8EBD75
:100E60008EB58B7F8EBD08958AB188608AB98AB1AC
:100E700080618AB98BB18D7F8BB987E689B9089576
:100E80005F9BFECF8CB108950E9458070C943908DF
:100E90000E94320858F00E942B0840F029F45F3F6E
:100EA00029F00C94220851110C946D080C94280818
:100EB0000E944A0868F39923B1F3552391F3951BD7
:100EC000550BBB27AA2762177307840738F09F5F6B
:100ED0005F4F220F331F441FAA1FA9F335D00E2ED8
:100EE0003AF0E0E832D091505040E695001CCAF745
:100EF0002BD0FE2F29D0660F771F881FBB1F261708
:100F000037074807AB07B0E809F0BB0B802DBF01DE
:100F1000FF2793585F4F3AF09E3F510578F00C94AD
:100F200022080C946D085F3FE4F3983ED4F3869555
:100F300077956795B795F7959F5FC9F7880F911DCE
:100F40009695879597F90895E1E0660F771F881FBA
:100F5000BB1F621773078407BA0720F0621B730B6D
:100F6000840BBA0BEE1F88F7E09508950E94520893
:100F700088F09F5798F0B92F9927B751B0F0E1F05A
:100F8000660F771F881F991F1AF0BA95C9F714C00A
:100F9000B13091F00E946C08B1E008950C946C0897
:100FA000672F782F8827B85F39F0B93FCCF3869543
:100FB00077956795B395D9F73EF4909580957095A0
:100FC00061957F4F8F4F9F4F0895E89409C097FB1D
:100FD0003EF490958095709561957F4F8F4F9F4F10
:100FE0009923A9F0F92F96E9BB279395F695879554
:100FF00077956795B795F111F8CFFAF4BB0F11F417
:1010000060FF1BC06F5F7F4F8F4F9F4F16C08823BD
:1010100011F096E911C0772321F09EE8872F762FF3
:1010200005C0662371F096E8862F70E060E02AF034
:101030009A95660F771F881FDAF7880F9695879520
:1010400097F9089597F99F6780E870E060E0089548
:101050009FEF80EC089500240A94161617061806D0
:101060000906089500240A941216130614060506AC
:101070000895092E0394000C11F4882352F0BB0F3D
:1010800040F4BF2B11F460FF04C06F5F7F4F8F4FA0
:101090009F4F089557FD9058440F551F59F05F3FDB
:1010A00071F04795880F97FB991F61F09F3F79F08A
:1010B00087950895121613061406551FF2CF46950C
:1010C000F1DF08C0161617061806991FF1CF86958E
:1010D0007105610508940895E894BB276627772772
:1010E000CB0197F90895A1E21A2EAA1BBB1BFD01A3
:1010F0000DC0AA1FBB1FEE1FFF1FA217B307E407F7
:10110000F50720F0A21BB30BE40BF50B661F771F4E
:10111000881F991F1A9469F760957095809590952E
:101120009B01AC01BD01CF010895EE0FFF1F05909B
:10113000F491E02D0994A29FB001B39FC001A39F39
:10114000700D811D1124911DB29F700D811D112400
:10115000911D08950E949B08A59F900DB49F900D2E
:10116000A49F800D911D11240895BB274A3031F4AE
:10117000992322F4BDE2909581959F4F0C94C1086C
:10118000BB27FB015527AA27880F991FAA1FA41761
:1011900010F0A41B83955051B9F7A05DAA3308F055
:1011A000A95DA193009779F7B111B1931192CB0189
:1011B0000C94DA08DC01FC01672F71917723E1F7C9
:1011C000329704C07C916D9370836291AE17BF0714
:0811D000C8F30895F894FFCF65
:1011D80056656869636C652032004F627374616399
:1011E8006C6520466F756E64202000456E67696ED9
:1011F800652054656D703A20004163636964656ECB
:10120800742061743A004C617469747564653A00BD
:101218004C6F6E6769747564653A005665686963F2
:101228006C65203220202020202020200020636DA3
:02123800200094
:00000001FF
