S01400004E6F64654D43555F746573742E7372656386
S11300000C94C5000C94E2000C9453050C94E2008B
S11300100C94E2000C94FB010C94F8070C94E2009D
S11300200C941C080C94E2000C94E2000C94C5059A
S11300300C94E2000C94E2000C94E2000C94E200B4
S11300400C94E2000C94E2000C94E2000C94E200A4
S11300500C94E2004E414E494E495459494E46CD06
S1130060CCCC3D0AD7233C17B7D13877CC2B32956B
S113007095E6241FB14F0A000020410000C8420049
S1130080401C4620BCBE4CCA1B0E5AAEC59D740013
S1130090407A10F35A00A0724E18090010A5D4E853
S11300A00000E87648170000E40B54020000CA9AE6
S11300B03B000000E1F50500008096980000004038
S11300C0420F000000A0860100000010270000007D
S11300D000E803000000006400000000000A0000C3
S11300E00000000100000000002C76D888DC674F77
S11300F00823DFC1DFAE59E1B1B796E5E3E453C6A7
S11301003AE651997696E8E6C28426EB898C9B629E
S1130110ED407C6FFCEFBC9C9F40F2BAA56FA5F448
S113012090055A2AF75C936B6CF9676DC11BFCE070
S1130130E40D47FEF520E6B500D0ED902E030094C3
S11301403577050080841E080000204E0A00000058
S1130150C80C333333330F986E12831141EF8D2162
S113016014893BE65516CFFEE6DB18D1844B381BC9
S1130170F77C1D901DA4BBE424203284725E22818E
S113018000C9F124ECA1E53D270011241FBECFE5F1
S1130190D8E0DEBFCDBF11E0A0E6B0E0E6EEFFE1BF
S11301A002C005900D92A835B107D9F722E0A8E561
S11301B0B1E001C01D92A331B207E1F70E94E4004F
S11301C00C94F10F0C9400000E94A2020E944404BB
S11301D00E9479020E9421090E94FF080E940609D8
S11301E081EE90E00E94BB042FEF87EA91E6215054
S11301F080409040E1F700C000000E94270581EF95
S113020090E00E94BB040E940D090E947E020E949D
S1130210A5020E940F0380916A01813421F090911C
S11302205B019923A1F3813421F40E9429030E94E4
S11302306B030E94270581EE90E00E94BB040E949C
S11302402B052FEF83ED90E3215080409040E1F7A0
S113025000C0000060E080E00E940F0581EE90E0A5
S11302600E94BB040E9442058FE59AEE0197F1F7C4
S113027000C000008091600190916101833091057C
S113028008F08EC083E091E00E9431099FEF23ECD7
S113029089E0915020408040E1F700C000000E94B6
S11302A027050E9490028BE091E00E94BB0485E048
S11302B091E00E94310985E191E00E9431099FEFAC
S11302C020E782E0915020408040E1F700C0000028
S11302D080915B01882321F0813009F442C080C001
S11302E08BE691E00E94310985E191E00E94310999
S11302F08FE19EE40197F1F700C000008BE791E0E5
S11303000E94310985E191E00E9431098FE39CE963
S11303100197F1F700C000008BE691E00E94AD0365
S1130320BC0189EA90E00E94D60BE9EAF0E0019072
S11303300020E9F731978CE290E0918380838BE78A
S113034091E00E94AD03BC0189EA90E00E94D60BC3
S113035089EA90E00E94310987E191E00E94310925
S11303603FC08AE990E00E94310985E191E00E9452
S113037031098AE890E00E94310985E191E00E9408
S113038031098FE39CE90197F1F700C0000080E692
S113039090E00E94310987E191E00E94310920C078
S11303A004970797A0F40E947E0260E081E00E9417
S11303B00F0584E291E00E94BB049FEF21EE84E0EC
S11303C0915020408040E1F700C0000043CF60E03E
S11303D081E00E940F0583E391E00E94BB043ACFC1
S11303E060E081E00E940F0589E191E00E94BB0476
S11303F080E090E008951F920F920FB60F9211249F
S11304002F933F934F935F936F937F938F939F9318
S1130410AF93BF93EF93FF9380915A018F5F8093C3
S11304205A018D3318F110925A01809159018F5F4E
S11304308093590180916A018134C1F060E081E0C8
S11304400E940F0581E491E00E94BB0460E081E01A
S11304500E940F05809159016CE370E0681B7109DB
S1130460072E000C880B990B0E94CE048091590131
S11304708C3338F010925901809158018F5F80932A
S1130480580180915801813019F5109258010E9449
S11304907E0280916A018134D9F081E080935B010E
S11304A00E94270584E491E00E94BB0460E081E09F
S11304B00E940F0580E30E947F042FEF87EA91E6F4
S11304C0215080409040E1F700C000000E941709CD
S11304D0FF91EF91BF91AF919F918F917F916F9118
S11304E05F914F913F912F910F900FBE0F901F90EE
S11304F0189561E08BE20E940006089561E08BE2AA
S11305000E94EF062FEF86E791E021508040904053
S1130510E1F700C0000060E08BE20E94EF0608955E
S113052061E08BE20E94EF062FEF89E698E121500B
S113053080409040E1F700C0000060E08BE20E9440
S1130540EF0608950E94530808950F931F93CF93C5
S1130550DF9380E006C0E82FF0E0E555FE4F1082FF
S11305608F5F8035C0F351C00E947C08843209F04B
S11305704CC08093AB01C1E009C00C2F10E00E9475
S11305807C08F801E555FE4F8083CF5FC630A8F3A1
S11305909091AC018091DC00981337C09091AD012B
S11305A08091DD00981331C09091AE018091DE00FE
S11305B098132BC09091AF018091DF00981325C050
S11305C09091B0018091E00098131FC01AC00C2FC5
S11305D010E00E947C08F801E555FE4F80838C32C0
S11305E061F4ED2FF0E005551E4FEE0FFF1FE557A8
S11305F0FE4F11830083DF5F02C08A3259F0CF5F60
S113060002C0D0E0C6E0C03510F380915B018823BE
S113061009F4AACFDF91CF911F910F910895E0E0E3
S11306200EC08E2F90E085559E4F20918D01309104
S11306308E018217930711F4EF5F04C0EF5FE0357A
S113064080F3E0E0F0E0E555FE4F808180936A019D
S1130650089580E00FC0282F30E025553E4F40918B
S11306608F01509190012417350719F48F5F90E0A2
S113067011C08F5F803578F380E0F9CFE92FF0E087
S1130680A82FB0E0A555BE4F2C91E559FE4F20830D
S11306908F5F9F5F923090F392E0282F30E0B90192
S11306A065557E4F409193015091940164177507ED
S11306B031F4E92FF0E0E559FE4F10820895E92F57
S11306C0F0E0D901A555BE4F2C91E559FE4F20838A
S11306D08F5F9F5FE2CF80E00FC0282F30E0255569
S11306E03E4F40919301509194012417350719F41A
S11306F08F5F90E011C08F5F803578F380E0F9CF91
S1130700E92FF0E0A82FB0E0A555BE4F2C91E55895
S1130710FE4F20838F5F9F5F933090F393E0282FE9
S113072030E0B90165557E4F409197015091980191
S11307306417750731F4E92FF0E0E558FE4F108295
S11307400895E92FF0E0D901A555BE4F2C91E55845
S1130750FE4F20838F5F9F5FE2CF8F929F92AF9275
S1130760BF92CF92DF92EF92FF920F931F93CF939A
S1130770DF93EC0180E007C0FE01E80FF11D9081DA
S11307809C3219F08F5F8031B8F3FE01E80FF11D40
S11307901082CE010E94D20B20E030E048EC52E4FB
S11307A00E94B6094B015C010E94280A70E080E0B7
S11307B090E00E94570A6B017C019B01AC01C501CA
S11307C0B4010E94440920E030E048EC52E40E9465
S11307D0090B20E030E040E752E40E94B6099B0197
S11307E0AC01C701B6010E9445098E0125E047E02E
S11307F00E94B20BCE01DF91CF911F910F91FF9018
S1130800EF90DF90CF90BF90AF909F908F9008951E
S1130810CF93C82F60E08BE00E94EF0660E08DE08C
S11308200E94EF066C2F607F636083E00E94DE0706
S113083061E08DE00E94EF068FE99FE00197F1F7F8
S113084000C0000060E08DE00E94EF0690E1C99FC7
S1130850B0011124636083E00E94DE0761E08DE053
S11308600E94EF068FE99FE00197F1F700C00000B6
S113087060E08DE00E94EF068FE19EE40197F1F7BE
S113088000C00000CF91089561E08BE00E94000653
S113089061E08CE00E94000661E08DE00E940006A9
S11308A061E08CE20E94000661E08DE20E94000695
S11308B061E08EE20E94000661E08FE20E94000681
S11308C02FEF81EE94E0215080409040E1F700C08A
S11308D0000083E30E94080482E30E94080488E283
S11308E00E9408048CE00E94080481E00E9408042D
S11308F086E00E94080482E00E9408040895CF93D1
S1130900C82F61E08BE00E94EF0660E08DE00E945A
S1130910EF066C2F607F636083E00E94DE0761E076
S11309208DE00E94EF068FE99FE00197F1F700C088
S1130930000060E08DE00E94EF0690E1C99FB001E5
S11309401124636083E00E94DE0761E08DE00E9471
S1130950EF068FE99FE00197F1F700C0000060E027
S11309608DE00E94EF068FE19EE40197F1F700C04D
S11309700000CF9108950F931F93CF938C01C0E093
S113098003C00E947F04CF5FF801EC0FF11D80814A
S11309908111F7CFCF911F910F9108951F93CF939A
S11309A0DF93CDB7DEB760970FB6F894DEBF0FBE06
S11309B0CDBF10E015C02AE030E040E050E00E94D6
S11309C0760BE1E0F0E0EC0FFD1FE10FF11D17FDE8
S11309D0FA95605D60831F5F622F732F842F952FBC
S11309E0611571058105910531F711500CC0E1E0E5
S11309F0F0E0EC0FFD1FE10FF11D17FDFA9580816A
S1130A000E947F041150112394F760960FB6F89456
S1130A10DEBF0FBECDBFDF91CF911F910895CF935D
S1130A20DF9300D0CDB7DEB790E8998390EC9A833A
S1130A30E1E0F0E0EC0FFD1FE80FF11D8081860F6F
S1130A400E9408040F900F90DF91CF91089581E0E8
S1130A500E940804089581B3806181BB81B3877FBC
S1130A6081BB82B3886082BB0E94EE070E94970814
S1130A700E94F50860E070E0CB010E949C080E948F
S1130A80EB08089580915F0181110CC082B38061ED
S1130A9082BB80E58A95F1F782B38F7E82BB81E0C9
S1130AA080935F0108951F920F920FB60F92112445
S1130AB02F933F934F935F936F937F938F939F9362
S1130AC0AF93BF93EF93FF9380915F01813009F05F
S1130AD04BC080915E0181110DC060E070E0CB01DC
S1130AE00E949C0881E080935E0110925D01109247
S1130AF05C013AC060E070E070915C0182B7680FFD
S1130B00711D80E090E00E94570A29E23CE349E627
S1130B1054E40E94B6090E94280ADC01CB01909398
S1130B206101809360014AE06BEF71E00E94E10B88
S1130B30ABEFB1E00D900020E9F7119785E0E2E515
S1130B40F1E001900D928A95E1F72FEF83EF91E0A8
S1130B50215080409040E1F700C0000010925D01F8
S1130B6010925C0110925E01FF91EF91BF91AF91E1
S1130B709F918F917F916F915F914F913F912F91B1
S1130B800F900FBE0F901F9018951F920F920FB6E3
S1130B900F9211242F933F934F935F936F937F93FF
S1130BA08F939F93AF93BF93EF93FF9380915C01D7
S1130BB090915D01019690935D0180935C018B3D62
S1130BC0924068F060E070E0CB010E949C081092B3
S1130BD05F0110925E0110925D0110925C01FF9121
S1130BE0EF91BF91AF919F918F917F916F915F91A1
S1130BF04F913F912F910F900FBE0F901F9018951A
S1130C009DEC899F912D1124969596959695662332
S1130C1009F472C0613009F0E1C0923021F118F496
S1130C20913039F008959330C1F1943009F44CC0F7
S1130C3008959DEC899F912D1124969596959695EE
S1130C40990F292F220F220F920F891B47B321E0FE
S1130C5030E0B90102C0660F771F8A95E2F7CB0135
S1130C60842B87BB08959DEC899F912D1124929527
S1130C709F70990F990F292F220F220F920F891B12
S1130C8041B321E030E0B90102C0660F771F8A95B5
S1130C90E2F7CB01842B81BB089599E8899F912DBC
S1130CA0112492959F707EE1979F8019112444B37B
S1130CB021E030E0B90102C0660F771F8A95E2F7A0
S1130CC0CB01842B84BB08959DEC899F912D112425
S1130CD092959695977078E2979F801911244AB35C
S1130CE021E030E0B90102C0660F771F8A95E2F770
S1130CF0CB01842B8ABB0895923029F118F49130EA
S1130D0039F008959330D1F1943009F44FC0089527
S1130D109DEC899F912D1124969596959695990F02
S1130D20292F220F220F920F891B47B321E030E0B5
S1130D30B90102C0660F771F8A95E2F7CB0180954F
S1130D40842387BB08959DEC899F912D112492954E
S1130D509F70990F990F292F220F220F920F891B31
S1130D6041B321E030E0B90102C0660F771F8A95D4
S1130D70E2F7CB018095842381BB089599E8899F8C
S1130D80912D112492959F707EE1979F80191124D3
S1130D9044B321E030E0B90102C0660F771F8A95A1
S1130DA0E2F7CB018095842384BB08959DEC899F51
S1130DB0912D112492959695977078E2979F8019BA
S1130DC011244AB321E030E0B90102C0660F771F55
S1130DD08A95E2F7CB01809584238ABB08959DEC24
S1130DE0899F912D1124969596959695662309F4DD
S1130DF072C0613009F0E1C0923021F118F49130F1
S1130E0039F008959330C1F1943009F44CC0089539
S1130E109DEC899F912D1124969596959695990F01
S1130E20292F220F220F920F891B48B321E030E0B3
S1130E30B90102C0660F771F8A95E2F7CB01842BB4
S1130E4088BB08959DEC899F912D112492959F70E4
S1130E50990F990F292F220F220F920F891B42B34A
S1130E6021E030E0B90102C0660F771F8A95E2F7EE
S1130E70CB01842B82BB089599E8899F912D11247D
S1130E8092959F707EE1979F8019112445B321E0CC
S1130E9030E0B90102C0660F771F8A95E2F7CB01F3
S1130EA0842B85BB08959DEC899F912D11249295E7
S1130EB09695977078E2979F801911244BB321E09F
S1130EC030E0B90102C0660F771F8A95E2F7CB01C3
S1130ED0842B8BBB0895923029F118F4913039F0AA
S1130EE008959330D1F1943009F44FC008959DECE6
S1130EF0899F912D1124969596959695990F292F52
S1130F00220F220F920F891B48B321E030E0B90170
S1130F1002C0660F771F8A95E2F7CB018095842380
S1130F2088BB08959DEC899F912D112492959F7003
S1130F30990F990F292F220F220F920F891B42B369
S1130F4021E030E0B90102C0660F771F8A95E2F70D
S1130F50CB018095842382BB089599E8899F912DC4
S1130F60112492959F707EE1979F8019112445B3B7
S1130F7021E030E0B90102C0660F771F8A95E2F7DD
S1130F80CB018095842385BB08959DEC899F912D89
S1130F90112492959695977078E2979F8019112461
S1130FA04BB321E030E0B90102C0660F771F8A9588
S1130FB0E2F7CB01809584238BBB0895813041F007
S1130FC028F0823039F0833039F0089568BB0895F1
S1130FD062BB089565BB08956BBB08958FB78068A5
S1130FE08FBF8BB780688BBF85B7846085BF08953A
S1130FF01F920F920FB60F9211248F939F9386B571
S113100097B58D53964F99BD88BD1092050281E026
S113101080930702869909C089B78F7D89BF88B7F5
S1131020886088BF89B7886089BF9F918F910F902E
S11310300FBE0F901F9018951F920F920FB60F922C
S113104011248F939F93809107028823A9F0869B94
S113105007C09091070280910502892B80930502B5
S113106080910702880F8093070288B599B58E573F
S1131070994F99BD88BD10C081E08093080280918A
S113108005028093060288B7806288BF89B78062B0
S113109089BF89B7877F89BF9F918F910F900FBEBA
S11310A00F901F9018958FB58E7F8FBD8FB58D7F54
S11310B08FBD8EB5877F8EBD8EB58F7E8EBD8EB56E
S11310C080688EBD8EB58F7B8EBD88B7806288BFE9
S11310D089B7806289BF8FB780688FBF1DBC1CBC75
S11310E08EB581608EBD8EB58D7F8EBD8EB58B7FA6
S11310F08EBD10920802089580910802811104C0E7
S113110080915B018823C1F310920802809106024A
S1131110089583B7877F83BF83B78F7B83BF089589
S11311208FB780688FBF89B7816089BF08950E9497
S113113089080E94900808950F931F939B01AC01A6
S1131140A8EEB3E00E94A70B8B019C01689415F8EC
S113115036952795179507951694D1F7DC01CB01A1
S1131160072E7EE0B695A795979587957A95D1F742
S1131170702D8093090290930A02A0930B02B093FE
S11311800C02D901C80180959095A095B095992736
S1131190AA27BB2780930D0290930E02A0930F02FF
S11311A0B09310020023A1F082BF809109029091B4
S11311B00A02A0910B02B0910C020196A11DB11D6F
S11311C08093090290930A02A0930B02B0930C023D
S11311D01F910F91089583B7816083BF83B78D7F7B
S11311E083BF83B78B7F83BF089583B78E7F83BF0D
S11311F083B78D7F83BF83B78B7F83BF089585B506
S11312008F7B85BD85B5877F85BD08958FB7806841
S11312108FBF89B7806489BF089585B5816085BD16
S113122085B5826085BD85B5846085BD089585B525
S11312308E7F85BD85B58D7F85BD85B58B7F85BD4D
S113124008958AB188608AB98AB180618AB98BB1FC
S11312508D7F8BB987E689B908955D9BFECF8CB9E4
S113126008950F931F93CF938C01C0E003C00E9495
S11312702D09CF5FF801EC0FF11D80818111F7CFAB
S1131280CF911F910F9108955058BB27AA270E9410
S11312905C090C94CF0A0E94C10A38F00E94C80A63
S11312A020F039F49F3F19F426F40C94BE0A0EF48E
S11312B0E095E7FB0C94B80AE92F0E94E00A58F382
S11312C0BA17620773078407950720F079F4A6F527
S11312D00C94020B0EF4E0950B2EBA2FA02D0B01EB
S11312E0B90190010C01CA01A0011124FF27591B67
S11312F099F0593F50F4503E68F11A16F040A22F6D
S1131300232F342F4427585FF3CF469537952795DD
S1131310A795F0405395C9F77EF41F16BA0B620BDC
S1131320730B840BBAF09150A1F0FF0FBB1F661F23
S1131330771F881FC2F70EC0BA0F621F731F841F66
S113134048F4879577956795B795F7959E3F08F08C
S1131350B0CF9395880F08F09927EE0F979587954E
S113136008950E94940A08F481E008950E94CA092D
S11313700C94CF0A0E94C80A58F00E94C10A40F097
S113138029F45F3F29F00C94B80A51110C94030B13
S11313900C94BE0A0E94E00A68F39923B1F3552322
S11313A091F3951B550BBB27AA2762177307840774
S11313B038F09F5F5F4F220F331F441FAA1FA9F30A
S11313C035D00E2E3AF0E0E832D091505040E695F8
S11313D0001CCAF72BD0FE2F29D0660F771F881F59
S11313E0BB1F261737074807AB07B0E809F0BB0B4C
S11313F0802DBF01FF2793585F4F3AF09E3F510560
S113140078F00C94B80A0C94030B5F3FE4F3983E15
S1131410D4F3869577956795B795F7959F5FC9F748
S1131420880F911D9695879597F90895E1E0660FC9
S1131430771F881FBB1F621773078407BA0720F042
S1131440621B730B840BBA0BEE1F88F7E0950895AB
S11314500E94E80A88F09F5798F0B92F9927B7514E
S1131460B0F0E1F0660F771F881F991F1AF0BA9544
S1131470C9F714C0B13091F00E94020BB1E0089595
S11314800C94020B672F782F8827B85F39F0B93F87
S1131490CCF3869577956795B395D9F73EF49095F7
S11314A08095709561957F4F8F4F9F4F0895E89475
S11314B009C097FB3EF490958095709561957F4F98
S11314C08F4F9F4F9923A9F0F92F96E9BB27939546
S11314D0F695879577956795B795F111F8CFFAF456
S11314E0BB0F11F460FF1BC06F5F7F4F8F4F9F4F87
S11314F016C0882311F096E911C0772321F09EE8E5
S1131500872F762F05C0662371F096E8862F70E04A
S113151060E02AF09A95660F771F881FDAF7880F24
S11315209695879597F90895990F0008550FAA0B7A
S1131530E0E8FEEF16161706E807F907C0F01216E2
S11315401306E407F50798F0621B730B840B950BE5
S113155039F40A2661F0232B242B252B21F408953A
S11315600A2609F4A140A6958FEF811D811D0895D7
S113157097F99F6780E870E060E008959FEF80EC42
S1131580089500240A9416161706180609060895E5
S113159000240A9412161306140605060895092E4B
S11315A00394000C11F4882352F0BB0F40F4BF2BBA
S11315B011F460FF04C06F5F7F4F8F4F9F4F0895FA
S11315C057FD9058440F551F59F05F3F71F04795F0
S11315D0880F97FB991F61F09F3F79F087950895D5
S11315E0121613061406551FF2CF4695F1DF08C0F4
S11315F0161617061806991FF1CF86957105610511
S113160008940895E894BB2766277727CB0197F9B8
S113161008950E941C0B0C94CF0A0E94C10A38F052
S11316200E94C80A20F0952311F00C94B80A0C9477
S1131630BE0A11240C94030B0E94E00A70F3959FD8
S1131640C1F3950F50E0551F629FF001729FBB27B5
S1131650F00DB11D639FAA27F00DB11DAA1F649F51
S11316606627B00DA11D661F829F2227B00DA11D04
S1131670621F739FB00DA11D621F839FA00D611D8A
S1131680221F749F3327A00D611D231F849F600DAB
S1131690211D822F762F6A2F11249F5750409AF0D4
S11316A0F1F088234AF0EE0FFF1FBB1F661F771F60
S11316B0881F91505040A9F79E3F510580F00C942B
S11316C0B80A0C94030B5F3FE4F3983ED4F3869579
S11316D077956795B795F795E7959F5FC1F7FE2BCB
S11316E0880F911D9695879597F90895A1E21A2E72
S11316F0AA1BBB1BFD010DC0AA1FBB1FEE1FFF1FB2
S1131700A217B307E407F50720F0A21BB30BE40B01
S1131710F50B661F771F881F991F1A9469F7609548
S11317207095809590959B01AC01BD01CF01089502
S1131730A29FB001B39FC001A39F700D811D11240E
S1131740911DB29F700D811D1124911D08950E9459
S1131750980BA59F900DB49F900DA49F800D911D93
S113176011240895EF920F931F93CF93DF93E80111
S113177047FD02C034E001C034E1042E000C550BD7
S113178057FF03C0519541955109E32E022F242F91
S1131790AE010E94060CCE01DF91CF911F910F91F3
S11317A0EF900895662777270C94600DFB01DC0108
S11317B00D900020E9F7119701900D920020E1F7B8
S11317C00895BB274A3031F4992322F4BDE2909561
S11317D081959F4F0C94ED0BBB27FB015527AA273E
S11317E0880F991FAA1FA41710F0A41B83955051AA
S11317F0B9F7A05DAA3308F0A95DA193009779F722
S1131800B111B1931192CB010C94A70FA9E0B0E0F0
S1131810ECE0FCE00C94C00F6A01122FB02E2BE315
S1131820201720F0FF24F394F00E02C02CE3F22ED4
S11318300F2D27E0AE014F5F5F4F0E94AE0EBC013B
S11318404981842F8970813031F0E1FC06C0E0FECB
S113185006C090E205C09DE203C09BE201C090E097
S11318605E2D507143FF3CC0911102C083E001C062
S113187084E0811718F4212F281B01C020E05111A6
S11318800BC0F601822F30E2882319F03193815086
S1131890FBCFC20ED11C20E0992329F0D6019C93E2
S11318A0F60131966F01C6010396E2FE0AC03EE4DA
S11318B0D6013C9341E411964C93119712963C93B4
S11318C006C03EE6F601308341E641833283FC01E3
S11318D0322F40E2332309F442C041933150FACF0E
S11318E042FF44C0911102C083E001C084E081172B
S11318F018F4212F281B01C020E051110BC0F60160
S1131900822F30E2882319F031938150FBCFC20E2D
S1131910D11C20E0992329F0D6019C93F60131963D
S11319206F01C6010396E2FE0BC039E4D6013C9375
S11319303EE411963C93119736E412963C9307C00B
S113194039E6F60130833EE6318336E63283FC0124
S1131950322F40E2332319F041933150FBCFFC0185
S1131960E20FF11D10828EEF9FEFA6C021E030E060
S1131970911102C020E030E0161617061CF4FB019A
S1131980319602C0E1E0F0E02E0F3F1FBB2021F0B2
S1131990EB2DF0E0319602C0E0E0F0E02E0F3F1FA7
S11319A0E12FF0E02E173F071CF4121B212F01C07A
S11319B020E08E2D887159F4F601822F30E28823BD
S11319C019F031938150FBCFC20ED11C20E0992332
S11319D029F0D6019C93F60131966F0151110BC089
S11319E0F601822F90E3882319F091938150FBCF65
S11319F0C20ED11C20E00F2D060F9A81342F3071B6
S1131A0044FF03C0913309F40150101624F4093043
S1131A1018F008E001C001E0AB0177FF02C040E02C
S1131A2050E0FB01E41BF50BA1E0B0E0AC0FBD1FDF
S1131A30EA0FFB1F8EE2A82E4B01801A91080B2D92
S1131A4010E01195019511094F3FBFEF5B0721F499
S1131A50D601AC9211966D01641775072CF08416AB
S1131A60950614F4818101C080E3415051093196F7
S1131A70D60111967D014017510724F0D6018C93AD
S1131A806701E2CF6417750739F4963320F4953370
S1131A9019F4311101C081E3F6018083F701822F2B
S1131AA090E2882319F091938150FBCFF701E20F64
S1131AB0F11D108280E090E02996ECE00C94DC0F9C
S1131AC0A0E0B0E0E6E6FDE00C94C00FEC016B0191
S1131AD06115710519F0FB01918380837E01FFEF8D
S1131AE0EF1AFF0A0881802F90E00E94860F892B4D
S1131AF011F0E701F3CF0D3239F47E0182E0E80EF4
S1131B00F11C098111E008C00B3229F47E0192E036
S1131B10E90EF11C098110E0E701219743E050E050
S1131B206CE570E0CE010E948F0F892BC1F42396DF
S1131B3045E050E067E570E0CE010E948F0F892BED
S1131B4009F42596C114D10419F0F601D183C08398
S1131B501111F6C060E070E080E89FE7FAC043E04E
S1131B6050E064E570E0CE010E948F0F892B59F498
S1131B70C114D10409F4E9C0F2E0EF0EF11CF6013E
S1131B80F182E082E2C020E030E0A901C0E0D0E0D0
S1131B90F70180EDA82EA00E89E08A1530F1912F6F
S1131BA09260B92E812F887012FF04C0811124C065
S1131BB0219622C081112197A5E0B0E00E94A70BD5
S1131BC0DC01CB01880F991FAA1FBB1F9C01AD012B
S1131BD02A0D311D411D511D283989E9380748074F
S1131BE089E1580748F0166006C09EEFA9120AC0A2
S1131BF013FD40C01860B12E8FEFE81AF80A008177
S1131C001B2DC6CF802F8F7D8534A1F580818D3229
S1131C1011F4106106C08B3221F0319661E070E05E
S1131C2004C08181329662E070E080538A3018F0FB
S1131C30E61BF70B1FC060E070E060389CE079079A
S1131C405CF4DB01AA0FBB1FAA0FBB1F6A0F7B1F2B
S1131C50660F771F680F711D3196DF0111978C9104
S1131C6080538A3050F314FF03C071956195710954
S1131C70C60FD71F11FF08C0C114D10429F0CF012A
S1131C800197F60191838083CA01B9010E94570A22
S1131C90212F2370233019F04B015C0106C04B0146
S1131CA05C01B7FAB094B7F8B09420E030E0A90131
S1131CB0C501B4010E94B109882309F43EC0D7FFCD
S1131CC006C0D195C195D10903E710E002C00BE825
S1131CD010E06801F8E1CF1AD10890E2E92EF12C66
S1131CE0CE15DF0574F0F801259135914591549195
S1131CF0C501B4010E94090B4B015C01CE19DF0937
S1131D00EFCF04501109F594E7940C151D0541F724
S1131D108A2D880F8B2D881F8F3F49F020E030E0FB
S1131D20A901C501B4010E94B109811106C082E272
S1131D3090E09093120280931102C501B40109C08E
S1131D4060E070E080E89FEF04C060E070E080EC49
S1131D509FE7CDB7DEB7ECE00C94DC0F283008F039
S1131D6027E03327DA01990F311D87FD9160009632
S1131D706105710539F432602E5F3D9330E32A9595
S1131D80E1F708959F3F30F080387105610509F04F
S1131D903C5F3C5F3D93913008F08068911DDF9378
S1131DA0CF931F930F93FF92EF92192F987F9695DD
S1131DB0E92F96959695E90FFF27E751FF4F99274D
S1131DC03327EE24FF24A701E70105900894079424
S1131DD028F4360FE71EF81E491F511D660F771FA2
S1131DE0881F991F0694A1F70590079428F4E70E1D
S1131DF0F81E491F561FC11D770F881F991F661FA4
S1131E000694A1F70590079428F4F80E491F561F6D
S1131E10C71FD11D880F991F661F771F0694A1F74E
S1131E200590079420F4490F561FC71FD81F990F18
S1131E30661F771F881F0694A9F784911095177061
S1131E4041F0D695C79557954795F794E7941A9519
S1131E50C1F7EFE8F0E0689415901591359165911C
S1131E60959105907FE27395E118F10A430B560BA7
S1131E70C90BD009C0F7E10CF11E431F561FC91F3F
S1131E80D01D7EF4703311F48A95E6CFE8940150A6
S1131E9030F0080F0AF40027021708F4202F2395C6
S1131EA0022F7A3328F079E37D932A95E9F710C05D
S1131EB07D932A9589F60694979567953795179596
S1131EC01794E118F10A430B560BC90BD00998F08B
S1131ED023957E9173957A3308F070E37C932013F5
S1131EE0B8F77E9170617D9330F0839571E37D93B3
S1131EF070E32A95E1F71124EF90FF900F911F9161
S1131F00CF91DF91992787FD9095089591110C94B5
S1131F10B70F803219F089508550C8F70895FB0136
S1131F20DC014150504088F08D9181341CF08B3598
S1131F300CF4805E659161341CF06B350CF4605ECA
S1131F40861B611171F3990B0895881BFCCFDC018A
S1131F50FC01672F71917723E1F7329704C07C91DC
S1131F606D9370836291AE17BF07C8F308959927E4
S1131F70882708952F923F924F925F926F927F929B
S1131F808F929F92AF92BF92CF92DF92EF92FF9285
S1131F900F931F93CF93DF93CDB7DEB7CA1BDB0B31
S1131FA00FB6F894DEBF0FBECDBF09942A883988D6
S1131FB048885F846E847D848C849B84AA84B984DD
S1131FC0C884DF80EE80FD800C811B81AA81B981E9
S1131FD0CE0FD11D0FB6F894DEBF0FBECDBFED01FD
S1091FE00895F894FFCF00
S1131FE668747470733A2F2F6D6170732E617070FC
S1131FF62E676F6F2E676C2F43336B4E4A614D6BA2
S113200638785239773464553700303331203239D1
S11320162E3533363538342C450033302031302EC6
S11320263130383735382C4E00687474703A2F2F97
S11320366D6170732E676F6F676C652E636F6D2F9E
S11320466D6170733F713D000000000000000000E8
S11320560000000000000000000000244750524D1C
S11320664356656869636C652031205374617274E4
S11320760047505320436F6E6E656374696E672E16
S11320862E2E00250053746F702C204163636964FF
S1132096656E7421002A002300416C657274205316
S11320A6656E74004F62737461636C6520466F7568
S11320B66E640020202020202020202020202020A4
S11320C6202020004E6F20475053205369676E61CD
S10B20D66C0020636D20000082
S9030000FC
